{
  "_format": "hh-sol-artifact-1",
  "contractName": "DocTokenV2",
  "sourceName": "contracts/DocTokenV2.sol",
  "abi": [
    {
      "inputs": [],
      "stateMutability": "nonpayable",
      "type": "constructor"
    },
    {
      "anonymous": false,
      "inputs": [
        {
          "indexed": true,
          "internalType": "address",
          "name": "account",
          "type": "address"
        },
        {
          "indexed": true,
          "internalType": "address",
          "name": "operator",
          "type": "address"
        },
        {
          "indexed": false,
          "internalType": "bool",
          "name": "approved",
          "type": "bool"
        }
      ],
      "name": "ApprovalForAll",
      "type": "event"
    },
    {
      "anonymous": false,
      "inputs": [
        {
          "indexed": true,
          "internalType": "address",
          "name": "previousOwner",
          "type": "address"
        },
        {
          "indexed": true,
          "internalType": "address",
          "name": "newOwner",
          "type": "address"
        }
      ],
      "name": "OwnershipTransferred",
      "type": "event"
    },
    {
      "anonymous": false,
      "inputs": [
        {
          "indexed": true,
          "internalType": "address",
          "name": "operator",
          "type": "address"
        },
        {
          "indexed": true,
          "internalType": "address",
          "name": "from",
          "type": "address"
        },
        {
          "indexed": true,
          "internalType": "address",
          "name": "to",
          "type": "address"
        },
        {
          "indexed": false,
          "internalType": "uint256[]",
          "name": "ids",
          "type": "uint256[]"
        },
        {
          "indexed": false,
          "internalType": "uint256[]",
          "name": "values",
          "type": "uint256[]"
        }
      ],
      "name": "TransferBatch",
      "type": "event"
    },
    {
      "anonymous": false,
      "inputs": [
        {
          "indexed": true,
          "internalType": "address",
          "name": "operator",
          "type": "address"
        },
        {
          "indexed": true,
          "internalType": "address",
          "name": "from",
          "type": "address"
        },
        {
          "indexed": true,
          "internalType": "address",
          "name": "to",
          "type": "address"
        },
        {
          "indexed": false,
          "internalType": "uint256",
          "name": "id",
          "type": "uint256"
        },
        {
          "indexed": false,
          "internalType": "uint256",
          "name": "value",
          "type": "uint256"
        }
      ],
      "name": "TransferSingle",
      "type": "event"
    },
    {
      "anonymous": false,
      "inputs": [
        {
          "indexed": false,
          "internalType": "string",
          "name": "value",
          "type": "string"
        },
        {
          "indexed": true,
          "internalType": "uint256",
          "name": "id",
          "type": "uint256"
        }
      ],
      "name": "URI",
      "type": "event"
    },
    {
      "inputs": [
        {
          "internalType": "address",
          "name": "account",
          "type": "address"
        },
        {
          "internalType": "uint256",
          "name": "id",
          "type": "uint256"
        }
      ],
      "name": "balanceOf",
      "outputs": [
        {
          "internalType": "uint256",
          "name": "",
          "type": "uint256"
        }
      ],
      "stateMutability": "view",
      "type": "function"
    },
    {
      "inputs": [
        {
          "internalType": "address[]",
          "name": "accounts",
          "type": "address[]"
        },
        {
          "internalType": "uint256[]",
          "name": "ids",
          "type": "uint256[]"
        }
      ],
      "name": "balanceOfBatch",
      "outputs": [
        {
          "internalType": "uint256[]",
          "name": "",
          "type": "uint256[]"
        }
      ],
      "stateMutability": "view",
      "type": "function"
    },
    {
      "inputs": [
        {
          "internalType": "uint256",
          "name": "id",
          "type": "uint256"
        }
      ],
      "name": "exists",
      "outputs": [
        {
          "internalType": "bool",
          "name": "",
          "type": "bool"
        }
      ],
      "stateMutability": "view",
      "type": "function"
    },
    {
      "inputs": [
        {
          "internalType": "address",
          "name": "account",
          "type": "address"
        },
        {
          "internalType": "address",
          "name": "operator",
          "type": "address"
        }
      ],
      "name": "isApprovedForAll",
      "outputs": [
        {
          "internalType": "bool",
          "name": "",
          "type": "bool"
        }
      ],
      "stateMutability": "view",
      "type": "function"
    },
    {
      "inputs": [
        {
          "internalType": "address",
          "name": "account",
          "type": "address"
        },
        {
          "internalType": "uint256",
          "name": "id",
          "type": "uint256"
        },
        {
          "internalType": "uint256",
          "name": "amount",
          "type": "uint256"
        },
        {
          "internalType": "bytes",
          "name": "data",
          "type": "bytes"
        }
      ],
      "name": "mint",
      "outputs": [],
      "stateMutability": "nonpayable",
      "type": "function"
    },
    {
      "inputs": [
        {
          "internalType": "address",
          "name": "to",
          "type": "address"
        },
        {
          "internalType": "uint256[]",
          "name": "ids",
          "type": "uint256[]"
        },
        {
          "internalType": "uint256[]",
          "name": "amounts",
          "type": "uint256[]"
        },
        {
          "internalType": "bytes",
          "name": "data",
          "type": "bytes"
        }
      ],
      "name": "mintBatch",
      "outputs": [],
      "stateMutability": "nonpayable",
      "type": "function"
    },
    {
      "inputs": [],
      "name": "owner",
      "outputs": [
        {
          "internalType": "address",
          "name": "",
          "type": "address"
        }
      ],
      "stateMutability": "view",
      "type": "function"
    },
    {
      "inputs": [],
      "name": "renounceOwnership",
      "outputs": [],
      "stateMutability": "nonpayable",
      "type": "function"
    },
    {
      "inputs": [
        {
          "internalType": "address",
          "name": "from",
          "type": "address"
        },
        {
          "internalType": "address",
          "name": "to",
          "type": "address"
        },
        {
          "internalType": "uint256[]",
          "name": "ids",
          "type": "uint256[]"
        },
        {
          "internalType": "uint256[]",
          "name": "amounts",
          "type": "uint256[]"
        },
        {
          "internalType": "bytes",
          "name": "data",
          "type": "bytes"
        }
      ],
      "name": "safeBatchTransferFrom",
      "outputs": [],
      "stateMutability": "nonpayable",
      "type": "function"
    },
    {
      "inputs": [
        {
          "internalType": "address",
          "name": "from",
          "type": "address"
        },
        {
          "internalType": "address",
          "name": "to",
          "type": "address"
        },
        {
          "internalType": "uint256",
          "name": "id",
          "type": "uint256"
        },
        {
          "internalType": "uint256",
          "name": "amount",
          "type": "uint256"
        },
        {
          "internalType": "bytes",
          "name": "data",
          "type": "bytes"
        }
      ],
      "name": "safeTransferFrom",
      "outputs": [],
      "stateMutability": "nonpayable",
      "type": "function"
    },
    {
      "inputs": [
        {
          "internalType": "address",
          "name": "operator",
          "type": "address"
        },
        {
          "internalType": "bool",
          "name": "approved",
          "type": "bool"
        }
      ],
      "name": "setApprovalForAll",
      "outputs": [],
      "stateMutability": "nonpayable",
      "type": "function"
    },
    {
      "inputs": [
        {
          "internalType": "string",
          "name": "newuri",
          "type": "string"
        }
      ],
      "name": "setURI",
      "outputs": [],
      "stateMutability": "nonpayable",
      "type": "function"
    },
    {
      "inputs": [
        {
          "internalType": "bytes4",
          "name": "interfaceId",
          "type": "bytes4"
        }
      ],
      "name": "supportsInterface",
      "outputs": [
        {
          "internalType": "bool",
          "name": "",
          "type": "bool"
        }
      ],
      "stateMutability": "view",
      "type": "function"
    },
    {
      "inputs": [
        {
          "internalType": "uint256",
          "name": "id",
          "type": "uint256"
        }
      ],
      "name": "totalSupply",
      "outputs": [
        {
          "internalType": "uint256",
          "name": "",
          "type": "uint256"
        }
      ],
      "stateMutability": "view",
      "type": "function"
    },
    {
      "inputs": [
        {
          "internalType": "address",
          "name": "newOwner",
          "type": "address"
        }
      ],
      "name": "transferOwnership",
      "outputs": [],
      "stateMutability": "nonpayable",
      "type": "function"
    },
    {
      "inputs": [
        {
          "internalType": "uint256",
          "name": "",
          "type": "uint256"
        }
      ],
      "name": "uri",
      "outputs": [
        {
          "internalType": "string",
          "name": "",
          "type": "string"
        }
      ],
      "stateMutability": "view",
      "type": "function"
    }
  ],
  "bytecode": "0x60806040523480156200001157600080fd5b506040518060800160405280605a81526020016200381f605a91396200003d816200006460201b60201c565b506200005e620000526200008060201b60201c565b6200008860201b60201c565b62000263565b80600290805190602001906200007c9291906200014e565b5050565b600033905090565b6000600360009054906101000a900473ffffffffffffffffffffffffffffffffffffffff16905081600360006101000a81548173ffffffffffffffffffffffffffffffffffffffff021916908373ffffffffffffffffffffffffffffffffffffffff1602179055508173ffffffffffffffffffffffffffffffffffffffff168173ffffffffffffffffffffffffffffffffffffffff167f8be0079c531659141344cd1fd0a4f28419497f9722a3daafe3b4186f6b6457e060405160405180910390a35050565b8280546200015c90620001fe565b90600052602060002090601f016020900481019282620001805760008555620001cc565b82601f106200019b57805160ff1916838001178555620001cc565b82800160010185558215620001cc579182015b82811115620001cb578251825591602001919060010190620001ae565b5b509050620001db9190620001df565b5090565b5b80821115620001fa576000816000905550600101620001e0565b5090565b600060028204905060018216806200021757607f821691505b602082108114156200022e576200022d62000234565b5b50919050565b7f4e487b7100000000000000000000000000000000000000000000000000000000600052602260045260246000fd5b6135ac80620002736000396000f3fe608060405234801561001057600080fd5b50600436106100ff5760003560e01c8063715018a611610097578063bd85b03911610066578063bd85b039146102a8578063e985e9c5146102d8578063f242432a14610308578063f2fde38b14610324576100ff565b8063715018a614610248578063731133e9146102525780638da5cb5b1461026e578063a22cb4651461028c576100ff565b80631f7fdffa116100d35780631f7fdffa146101b05780632eb2c2d6146101cc5780634e1273f4146101e85780634f558e7914610218576100ff565b8062fdd58e1461010457806301ffc9a71461013457806302fe5305146101645780630e89341c14610180575b600080fd5b61011e600480360381019061011991906124b1565b610340565b60405161012b9190612c8e565b60405180910390f35b61014e600480360381019061014991906125d4565b610409565b60405161015b9190612ab1565b60405180910390f35b61017e60048036038101906101799190612626565b6104eb565b005b61019a60048036038101906101959190612667565b6104ff565b6040516101a79190612acc565b60405180910390f35b6101ca60048036038101906101c591906123ca565b610593565b005b6101e660048036038101906101e1919061227c565b6105ad565b005b61020260048036038101906101fd9190612568565b61064e565b60405161020f9190612a58565b60405180910390f35b610232600480360381019061022d9190612667565b6107ff565b60405161023f9190612ab1565b60405180910390f35b610250610813565b005b61026c600480360381019061026791906124ed565b610827565b005b610276610841565b604051610283919061297b565b60405180910390f35b6102a660048036038101906102a19190612475565b61086b565b005b6102c260048036038101906102bd9190612667565b610881565b6040516102cf9190612c8e565b60405180910390f35b6102f260048036038101906102ed9190612240565b61089e565b6040516102ff9190612ab1565b60405180910390f35b610322600480360381019061031d919061233b565b610932565b005b61033e60048036038101906103399190612217565b6109d3565b005b60008073ffffffffffffffffffffffffffffffffffffffff168373ffffffffffffffffffffffffffffffffffffffff1614156103b1576040517f08c379a00000000000000000000000000000000000000000000000000000000081526004016103a890612b6e565b60405180910390fd5b60008083815260200190815260200160002060008473ffffffffffffffffffffffffffffffffffffffff1673ffffffffffffffffffffffffffffffffffffffff16815260200190815260200160002054905092915050565b60007fd9b67a26000000000000000000000000000000000000000000000000000000007bffffffffffffffffffffffffffffffffffffffffffffffffffffffff1916827bffffffffffffffffffffffffffffffffffffffffffffffffffffffff191614806104d457507f0e89341c000000000000000000000000000000000000000000000000000000007bffffffffffffffffffffffffffffffffffffffffffffffffffffffff1916827bffffffffffffffffffffffffffffffffffffffffffffffffffffffff1916145b806104e457506104e382610a57565b5b9050919050565b6104f3610ac1565b6104fc81610b3f565b50565b60606002805461050e90612f2e565b80601f016020809104026020016040519081016040528092919081815260200182805461053a90612f2e565b80156105875780601f1061055c57610100808354040283529160200191610587565b820191906000526020600020905b81548152906001019060200180831161056a57829003601f168201915b50505050509050919050565b61059b610ac1565b6105a784848484610b59565b50505050565b6105b5610dd2565b73ffffffffffffffffffffffffffffffffffffffff168573ffffffffffffffffffffffffffffffffffffffff1614806105fb57506105fa856105f5610dd2565b61089e565b5b61063a576040517f08c379a000000000000000000000000000000000000000000000000000000000815260040161063190612b0e565b60405180910390fd5b6106478585858585610dda565b5050505050565b60608151835114610694576040517f08c379a000000000000000000000000000000000000000000000000000000000815260040161068b90612c2e565b60405180910390fd5b6000835167ffffffffffffffff8111156106d7577f4e487b7100000000000000000000000000000000000000000000000000000000600052604160045260246000fd5b6040519080825280602002602001820160405280156107055781602001602082028036833780820191505090505b50905060005b84518110156107f45761079e858281518110610750577f4e487b7100000000000000000000000000000000000000000000000000000000600052603260045260246000fd5b6020026020010151858381518110610791577f4e487b7100000000000000000000000000000000000000000000000000000000600052603260045260246000fd5b6020026020010151610340565b8282815181106107d7577f4e487b7100000000000000000000000000000000000000000000000000000000600052603260045260246000fd5b602002602001018181525050806107ed90612f91565b905061070b565b508091505092915050565b60008061080b83610881565b119050919050565b61081b610ac1565b6108256000611148565b565b61082f610ac1565b61083b8484848461120e565b50505050565b6000600360009054906101000a900473ffffffffffffffffffffffffffffffffffffffff16905090565b61087d610876610dd2565b83836113bf565b5050565b600060046000838152602001908152602001600020549050919050565b6000600160008473ffffffffffffffffffffffffffffffffffffffff1673ffffffffffffffffffffffffffffffffffffffff16815260200190815260200160002060008373ffffffffffffffffffffffffffffffffffffffff1673ffffffffffffffffffffffffffffffffffffffff16815260200190815260200160002060009054906101000a900460ff16905092915050565b61093a610dd2565b73ffffffffffffffffffffffffffffffffffffffff168573ffffffffffffffffffffffffffffffffffffffff161480610980575061097f8561097a610dd2565b61089e565b5b6109bf576040517f08c379a00000000000000000000000000000000000000000000000000000000081526004016109b690612b0e565b60405180910390fd5b6109cc858585858561152c565b5050505050565b6109db610ac1565b600073ffffffffffffffffffffffffffffffffffffffff168173ffffffffffffffffffffffffffffffffffffffff161415610a4b576040517f08c379a0000000000000000000000000000000000000000000000000000000008152600401610a4290612b4e565b60405180910390fd5b610a5481611148565b50565b60007f01ffc9a7000000000000000000000000000000000000000000000000000000007bffffffffffffffffffffffffffffffffffffffffffffffffffffffff1916827bffffffffffffffffffffffffffffffffffffffffffffffffffffffff1916149050919050565b610ac9610dd2565b73ffffffffffffffffffffffffffffffffffffffff16610ae7610841565b73ffffffffffffffffffffffffffffffffffffffff1614610b3d576040517f08c379a0000000000000000000000000000000000000000000000000000000008152600401610b3490612bce565b60405180910390fd5b565b8060029080519060200190610b55929190611f0f565b5050565b600073ffffffffffffffffffffffffffffffffffffffff168473ffffffffffffffffffffffffffffffffffffffff161415610bc9576040517f08c379a0000000000000000000000000000000000000000000000000000000008152600401610bc090612c6e565b60405180910390fd5b8151835114610c0d576040517f08c379a0000000000000000000000000000000000000000000000000000000008152600401610c0490612c4e565b60405180910390fd5b6000610c17610dd2565b9050610c28816000878787876117c8565b60005b8451811015610d2d57838181518110610c6d577f4e487b7100000000000000000000000000000000000000000000000000000000600052603260045260246000fd5b6020026020010151600080878481518110610cb1577f4e487b7100000000000000000000000000000000000000000000000000000000600052603260045260246000fd5b6020026020010151815260200190815260200160002060008873ffffffffffffffffffffffffffffffffffffffff1673ffffffffffffffffffffffffffffffffffffffff1681526020019081526020016000206000828254610d139190612e22565b925050819055508080610d2590612f91565b915050610c2b565b508473ffffffffffffffffffffffffffffffffffffffff16600073ffffffffffffffffffffffffffffffffffffffff168273ffffffffffffffffffffffffffffffffffffffff167f4a39dc06d4c0dbc64b70af90fd698a233a518aa5d07e595d983b8c0526c8f7fb8787604051610da5929190612a7a565b60405180910390a4610dbc816000878787876117de565b610dcb816000878787876117e6565b5050505050565b600033905090565b8151835114610e1e576040517f08c379a0000000000000000000000000000000000000000000000000000000008152600401610e1590612c4e565b60405180910390fd5b600073ffffffffffffffffffffffffffffffffffffffff168473ffffffffffffffffffffffffffffffffffffffff161415610e8e576040517f08c379a0000000000000000000000000000000000000000000000000000000008152600401610e8590612b8e565b60405180910390fd5b6000610e98610dd2565b9050610ea88187878787876117c8565b60005b84518110156110a5576000858281518110610eef577f4e487b7100000000000000000000000000000000000000000000000000000000600052603260045260246000fd5b602002602001015190506000858381518110610f34577f4e487b7100000000000000000000000000000000000000000000000000000000600052603260045260246000fd5b60200260200101519050600080600084815260200190815260200160002060008b73ffffffffffffffffffffffffffffffffffffffff1673ffffffffffffffffffffffffffffffffffffffff16815260200190815260200160002054905081811015610fd5576040517f08c379a0000000000000000000000000000000000000000000000000000000008152600401610fcc90612bae565b60405180910390fd5b81810360008085815260200190815260200160002060008c73ffffffffffffffffffffffffffffffffffffffff1673ffffffffffffffffffffffffffffffffffffffff168152602001908152602001600020819055508160008085815260200190815260200160002060008b73ffffffffffffffffffffffffffffffffffffffff1673ffffffffffffffffffffffffffffffffffffffff168152602001908152602001600020600082825461108a9190612e22565b925050819055505050508061109e90612f91565b9050610eab565b508473ffffffffffffffffffffffffffffffffffffffff168673ffffffffffffffffffffffffffffffffffffffff168273ffffffffffffffffffffffffffffffffffffffff167f4a39dc06d4c0dbc64b70af90fd698a233a518aa5d07e595d983b8c0526c8f7fb878760405161111c929190612a7a565b60405180910390a46111328187878787876117de565b6111408187878787876117e6565b505050505050565b6000600360009054906101000a900473ffffffffffffffffffffffffffffffffffffffff16905081600360006101000a81548173ffffffffffffffffffffffffffffffffffffffff021916908373ffffffffffffffffffffffffffffffffffffffff1602179055508173ffffffffffffffffffffffffffffffffffffffff168173ffffffffffffffffffffffffffffffffffffffff167f8be0079c531659141344cd1fd0a4f28419497f9722a3daafe3b4186f6b6457e060405160405180910390a35050565b600073ffffffffffffffffffffffffffffffffffffffff168473ffffffffffffffffffffffffffffffffffffffff16141561127e576040517f08c379a000000000000000000000000000000000000000000000000000000000815260040161127590612c6e565b60405180910390fd5b6000611288610dd2565b90506000611295856119cd565b905060006112a2856119cd565b90506112b3836000898585896117c8565b8460008088815260200190815260200160002060008973ffffffffffffffffffffffffffffffffffffffff1673ffffffffffffffffffffffffffffffffffffffff16815260200190815260200160002060008282546113129190612e22565b925050819055508673ffffffffffffffffffffffffffffffffffffffff16600073ffffffffffffffffffffffffffffffffffffffff168473ffffffffffffffffffffffffffffffffffffffff167fc3d58168c5ae7397731d063d5bbf3d657854427343f4c083240f7aacaa2d0f628989604051611390929190612ca9565b60405180910390a46113a7836000898585896117de565b6113b683600089898989611a93565b50505050505050565b8173ffffffffffffffffffffffffffffffffffffffff168373ffffffffffffffffffffffffffffffffffffffff16141561142e576040517f08c379a000000000000000000000000000000000000000000000000000000000815260040161142590612c0e565b60405180910390fd5b80600160008573ffffffffffffffffffffffffffffffffffffffff1673ffffffffffffffffffffffffffffffffffffffff16815260200190815260200160002060008473ffffffffffffffffffffffffffffffffffffffff1673ffffffffffffffffffffffffffffffffffffffff16815260200190815260200160002060006101000a81548160ff0219169083151502179055508173ffffffffffffffffffffffffffffffffffffffff168373ffffffffffffffffffffffffffffffffffffffff167f17307eab39ab6107e8899845ad3d59bd9653f200f220920489ca2b5937696c318360405161151f9190612ab1565b60405180910390a3505050565b600073ffffffffffffffffffffffffffffffffffffffff168473ffffffffffffffffffffffffffffffffffffffff16141561159c576040517f08c379a000000000000000000000000000000000000000000000000000000000815260040161159390612b8e565b60405180910390fd5b60006115a6610dd2565b905060006115b3856119cd565b905060006115c0856119cd565b90506115d08389898585896117c8565b600080600088815260200190815260200160002060008a73ffffffffffffffffffffffffffffffffffffffff1673ffffffffffffffffffffffffffffffffffffffff16815260200190815260200160002054905085811015611667576040517f08c379a000000000000000000000000000000000000000000000000000000000815260040161165e90612bae565b60405180910390fd5b85810360008089815260200190815260200160002060008b73ffffffffffffffffffffffffffffffffffffffff1673ffffffffffffffffffffffffffffffffffffffff168152602001908152602001600020819055508560008089815260200190815260200160002060008a73ffffffffffffffffffffffffffffffffffffffff1673ffffffffffffffffffffffffffffffffffffffff168152602001908152602001600020600082825461171c9190612e22565b925050819055508773ffffffffffffffffffffffffffffffffffffffff168973ffffffffffffffffffffffffffffffffffffffff168573ffffffffffffffffffffffffffffffffffffffff167fc3d58168c5ae7397731d063d5bbf3d657854427343f4c083240f7aacaa2d0f628a8a604051611799929190612ca9565b60405180910390a46117af848a8a86868a6117de565b6117bd848a8a8a8a8a611a93565b505050505050505050565b6117d6868686868686611c7a565b505050505050565b505050505050565b6118058473ffffffffffffffffffffffffffffffffffffffff16611ee4565b156119c5578373ffffffffffffffffffffffffffffffffffffffff1663bc197c8187878686866040518663ffffffff1660e01b815260040161184b959493929190612996565b602060405180830381600087803b15801561186557600080fd5b505af192505050801561189657506040513d601f19601f8201168201806040525081019061189391906125fd565b60015b61193c576118a2613067565b806308c379a014156118ff57506118b7613484565b806118c25750611901565b806040517f08c379a00000000000000000000000000000000000000000000000000000000081526004016118f69190612acc565b60405180910390fd5b505b6040517f08c379a000000000000000000000000000000000000000000000000000000000815260040161193390612aee565b60405180910390fd5b63bc197c8160e01b7bffffffffffffffffffffffffffffffffffffffffffffffffffffffff1916817bffffffffffffffffffffffffffffffffffffffffffffffffffffffff1916146119c3576040517f08c379a00000000000000000000000000000000000000000000000000000000081526004016119ba90612b2e565b60405180910390fd5b505b505050505050565b60606000600167ffffffffffffffff811115611a12577f4e487b7100000000000000000000000000000000000000000000000000000000600052604160045260246000fd5b604051908082528060200260200182016040528015611a405781602001602082028036833780820191505090505b5090508281600081518110611a7e577f4e487b7100000000000000000000000000000000000000000000000000000000600052603260045260246000fd5b60200260200101818152505080915050919050565b611ab28473ffffffffffffffffffffffffffffffffffffffff16611ee4565b15611c72578373ffffffffffffffffffffffffffffffffffffffff1663f23a6e6187878686866040518663ffffffff1660e01b8152600401611af89594939291906129fe565b602060405180830381600087803b158015611b1257600080fd5b505af1925050508015611b4357506040513d601f19601f82011682018060405250810190611b4091906125fd565b60015b611be957611b4f613067565b806308c379a01415611bac5750611b64613484565b80611b6f5750611bae565b806040517f08c379a0000000000000000000000000000000000000000000000000000000008152600401611ba39190612acc565b60405180910390fd5b505b6040517f08c379a0000000000000000000000000000000000000000000000000000000008152600401611be090612aee565b60405180910390fd5b63f23a6e6160e01b7bffffffffffffffffffffffffffffffffffffffffffffffffffffffff1916817bffffffffffffffffffffffffffffffffffffffffffffffffffffffff191614611c70576040517f08c379a0000000000000000000000000000000000000000000000000000000008152600401611c6790612b2e565b60405180910390fd5b505b505050505050565b611c88868686868686611f07565b600073ffffffffffffffffffffffffffffffffffffffff168573ffffffffffffffffffffffffffffffffffffffff161415611d865760005b8351811015611d8457828181518110611d02577f4e487b7100000000000000000000000000000000000000000000000000000000600052603260045260246000fd5b602002602001015160046000868481518110611d47577f4e487b7100000000000000000000000000000000000000000000000000000000600052603260045260246000fd5b602002602001015181526020019081526020016000206000828254611d6c9190612e22565b9250508190555080611d7d90612f91565b9050611cc0565b505b600073ffffffffffffffffffffffffffffffffffffffff168473ffffffffffffffffffffffffffffffffffffffff161415611edc5760005b8351811015611eda576000848281518110611e02577f4e487b7100000000000000000000000000000000000000000000000000000000600052603260045260246000fd5b602002602001015190506000848381518110611e47577f4e487b7100000000000000000000000000000000000000000000000000000000600052603260045260246000fd5b6020026020010151905060006004600084815260200190815260200160002054905081811015611eac576040517f08c379a0000000000000000000000000000000000000000000000000000000008152600401611ea390612bee565b60405180910390fd5b818103600460008581526020019081526020016000208190555050505080611ed390612f91565b9050611dbe565b505b505050505050565b6000808273ffffffffffffffffffffffffffffffffffffffff163b119050919050565b505050505050565b828054611f1b90612f2e565b90600052602060002090601f016020900481019282611f3d5760008555611f84565b82601f10611f5657805160ff1916838001178555611f84565b82800160010185558215611f84579182015b82811115611f83578251825591602001919060010190611f68565b5b509050611f919190611f95565b5090565b5b80821115611fae576000816000905550600101611f96565b5090565b6000611fc5611fc084612cf7565b612cd2565b90508083825260208201905082856020860282011115611fe457600080fd5b60005b858110156120145781611ffa8882612106565b845260208401935060208301925050600181019050611fe7565b5050509392505050565b600061203161202c84612d23565b612cd2565b9050808382526020820190508285602086028201111561205057600080fd5b60005b8581101561208057816120668882612202565b845260208401935060208301925050600181019050612053565b5050509392505050565b600061209d61209884612d4f565b612cd2565b9050828152602081018484840111156120b557600080fd5b6120c0848285612eec565b509392505050565b60006120db6120d684612d80565b612cd2565b9050828152602081018484840111156120f357600080fd5b6120fe848285612eec565b509392505050565b6000813590506121158161351a565b92915050565b600082601f83011261212c57600080fd5b813561213c848260208601611fb2565b91505092915050565b600082601f83011261215657600080fd5b813561216684826020860161201e565b91505092915050565b60008135905061217e81613531565b92915050565b60008135905061219381613548565b92915050565b6000815190506121a881613548565b92915050565b600082601f8301126121bf57600080fd5b81356121cf84826020860161208a565b91505092915050565b600082601f8301126121e957600080fd5b81356121f98482602086016120c8565b91505092915050565b6000813590506122118161355f565b92915050565b60006020828403121561222957600080fd5b600061223784828501612106565b91505092915050565b6000806040838503121561225357600080fd5b600061226185828601612106565b925050602061227285828601612106565b9150509250929050565b600080600080600060a0868803121561229457600080fd5b60006122a288828901612106565b95505060206122b388828901612106565b945050604086013567ffffffffffffffff8111156122d057600080fd5b6122dc88828901612145565b935050606086013567ffffffffffffffff8111156122f957600080fd5b61230588828901612145565b925050608086013567ffffffffffffffff81111561232257600080fd5b61232e888289016121ae565b9150509295509295909350565b600080600080600060a0868803121561235357600080fd5b600061236188828901612106565b955050602061237288828901612106565b945050604061238388828901612202565b935050606061239488828901612202565b925050608086013567ffffffffffffffff8111156123b157600080fd5b6123bd888289016121ae565b9150509295509295909350565b600080600080608085870312156123e057600080fd5b60006123ee87828801612106565b945050602085013567ffffffffffffffff81111561240b57600080fd5b61241787828801612145565b935050604085013567ffffffffffffffff81111561243457600080fd5b61244087828801612145565b925050606085013567ffffffffffffffff81111561245d57600080fd5b612469878288016121ae565b91505092959194509250565b6000806040838503121561248857600080fd5b600061249685828601612106565b92505060206124a78582860161216f565b9150509250929050565b600080604083850312156124c457600080fd5b60006124d285828601612106565b92505060206124e385828601612202565b9150509250929050565b6000806000806080858703121561250357600080fd5b600061251187828801612106565b945050602061252287828801612202565b935050604061253387828801612202565b925050606085013567ffffffffffffffff81111561255057600080fd5b61255c878288016121ae565b91505092959194509250565b6000806040838503121561257b57600080fd5b600083013567ffffffffffffffff81111561259557600080fd5b6125a18582860161211b565b925050602083013567ffffffffffffffff8111156125be57600080fd5b6125ca85828601612145565b9150509250929050565b6000602082840312156125e657600080fd5b60006125f484828501612184565b91505092915050565b60006020828403121561260f57600080fd5b600061261d84828501612199565b91505092915050565b60006020828403121561263857600080fd5b600082013567ffffffffffffffff81111561265257600080fd5b61265e848285016121d8565b91505092915050565b60006020828403121561267957600080fd5b600061268784828501612202565b91505092915050565b600061269c838361295d565b60208301905092915050565b6126b181612e78565b82525050565b60006126c282612dc1565b6126cc8185612def565b93506126d783612db1565b8060005b838110156127085781516126ef8882612690565b97506126fa83612de2565b9250506001810190506126db565b5085935050505092915050565b61271e81612e8a565b82525050565b600061272f82612dcc565b6127398185612e00565b9350612749818560208601612efb565b61275281613089565b840191505092915050565b600061276882612dd7565b6127728185612e11565b9350612782818560208601612efb565b61278b81613089565b840191505092915050565b60006127a3603483612e11565b91506127ae826130a7565b604082019050919050565b60006127c6602f83612e11565b91506127d1826130f6565b604082019050919050565b60006127e9602883612e11565b91506127f482613145565b604082019050919050565b600061280c602683612e11565b915061281782613194565b604082019050919050565b600061282f602a83612e11565b915061283a826131e3565b604082019050919050565b6000612852602583612e11565b915061285d82613232565b604082019050919050565b6000612875602a83612e11565b915061288082613281565b604082019050919050565b6000612898602083612e11565b91506128a3826132d0565b602082019050919050565b60006128bb602883612e11565b91506128c6826132f9565b604082019050919050565b60006128de602983612e11565b91506128e982613348565b604082019050919050565b6000612901602983612e11565b915061290c82613397565b604082019050919050565b6000612924602883612e11565b915061292f826133e6565b604082019050919050565b6000612947602183612e11565b915061295282613435565b604082019050919050565b61296681612ee2565b82525050565b61297581612ee2565b82525050565b600060208201905061299060008301846126a8565b92915050565b600060a0820190506129ab60008301886126a8565b6129b860208301876126a8565b81810360408301526129ca81866126b7565b905081810360608301526129de81856126b7565b905081810360808301526129f28184612724565b90509695505050505050565b600060a082019050612a1360008301886126a8565b612a2060208301876126a8565b612a2d604083018661296c565b612a3a606083018561296c565b8181036080830152612a4c8184612724565b90509695505050505050565b60006020820190508181036000830152612a7281846126b7565b905092915050565b60006040820190508181036000830152612a9481856126b7565b90508181036020830152612aa881846126b7565b90509392505050565b6000602082019050612ac66000830184612715565b92915050565b60006020820190508181036000830152612ae6818461275d565b905092915050565b60006020820190508181036000830152612b0781612796565b9050919050565b60006020820190508181036000830152612b27816127b9565b9050919050565b60006020820190508181036000830152612b47816127dc565b9050919050565b60006020820190508181036000830152612b67816127ff565b9050919050565b60006020820190508181036000830152612b8781612822565b9050919050565b60006020820190508181036000830152612ba781612845565b9050919050565b60006020820190508181036000830152612bc781612868565b9050919050565b60006020820190508181036000830152612be78161288b565b9050919050565b60006020820190508181036000830152612c07816128ae565b9050919050565b60006020820190508181036000830152612c27816128d1565b9050919050565b60006020820190508181036000830152612c47816128f4565b9050919050565b60006020820190508181036000830152612c6781612917565b9050919050565b60006020820190508181036000830152612c878161293a565b9050919050565b6000602082019050612ca3600083018461296c565b92915050565b6000604082019050612cbe600083018561296c565b612ccb602083018461296c565b9392505050565b6000612cdc612ced565b9050612ce88282612f60565b919050565b6000604051905090565b600067ffffffffffffffff821115612d1257612d11613038565b5b602082029050602081019050919050565b600067ffffffffffffffff821115612d3e57612d3d613038565b5b602082029050602081019050919050565b600067ffffffffffffffff821115612d6a57612d69613038565b5b612d7382613089565b9050602081019050919050565b600067ffffffffffffffff821115612d9b57612d9a613038565b5b612da482613089565b9050602081019050919050565b6000819050602082019050919050565b600081519050919050565b600081519050919050565b600081519050919050565b6000602082019050919050565b600082825260208201905092915050565b600082825260208201905092915050565b600082825260208201905092915050565b6000612e2d82612ee2565b9150612e3883612ee2565b9250827fffffffffffffffffffffffffffffffffffffffffffffffffffffffffffffffff03821115612e6d57612e6c612fda565b5b828201905092915050565b6000612e8382612ec2565b9050919050565b60008115159050919050565b60007fffffffff0000000000000000000000000000000000000000000000000000000082169050919050565b600073ffffffffffffffffffffffffffffffffffffffff82169050919050565b6000819050919050565b82818337600083830152505050565b60005b83811015612f19578082015181840152602081019050612efe565b83811115612f28576000848401525b50505050565b60006002820490506001821680612f4657607f821691505b60208210811415612f5a57612f59613009565b5b50919050565b612f6982613089565b810181811067ffffffffffffffff82111715612f8857612f87613038565b5b80604052505050565b6000612f9c82612ee2565b91507fffffffffffffffffffffffffffffffffffffffffffffffffffffffffffffffff821415612fcf57612fce612fda565b5b600182019050919050565b7f4e487b7100000000000000000000000000000000000000000000000000000000600052601160045260246000fd5b7f4e487b7100000000000000000000000000000000000000000000000000000000600052602260045260246000fd5b7f4e487b7100000000000000000000000000000000000000000000000000000000600052604160045260246000fd5b600060033d11156130865760046000803e61308360005161309a565b90505b90565b6000601f19601f8301169050919050565b60008160e01c9050919050565b7f455243313135353a207472616e7366657220746f206e6f6e204552433131353560008201527f526563656976657220696d706c656d656e746572000000000000000000000000602082015250565b7f455243313135353a2063616c6c6572206973206e6f7420746f6b656e206f776e60008201527f6572206e6f7220617070726f7665640000000000000000000000000000000000602082015250565b7f455243313135353a204552433131353552656365697665722072656a6563746560008201527f6420746f6b656e73000000000000000000000000000000000000000000000000602082015250565b7f4f776e61626c653a206e6577206f776e657220697320746865207a65726f206160008201527f6464726573730000000000000000000000000000000000000000000000000000602082015250565b7f455243313135353a2061646472657373207a65726f206973206e6f742061207660008201527f616c6964206f776e657200000000000000000000000000000000000000000000602082015250565b7f455243313135353a207472616e7366657220746f20746865207a65726f20616460008201527f6472657373000000000000000000000000000000000000000000000000000000602082015250565b7f455243313135353a20696e73756666696369656e742062616c616e636520666f60008201527f72207472616e7366657200000000000000000000000000000000000000000000602082015250565b7f4f776e61626c653a2063616c6c6572206973206e6f7420746865206f776e6572600082015250565b7f455243313135353a206275726e20616d6f756e74206578636565647320746f7460008201527f616c537570706c79000000000000000000000000000000000000000000000000602082015250565b7f455243313135353a2073657474696e6720617070726f76616c2073746174757360008201527f20666f722073656c660000000000000000000000000000000000000000000000602082015250565b7f455243313135353a206163636f756e747320616e6420696473206c656e67746860008201527f206d69736d617463680000000000000000000000000000000000000000000000602082015250565b7f455243313135353a2069647320616e6420616d6f756e7473206c656e6774682060008201527f6d69736d61746368000000000000000000000000000000000000000000000000602082015250565b7f455243313135353a206d696e7420746f20746865207a65726f2061646472657360008201527f7300000000000000000000000000000000000000000000000000000000000000602082015250565b600060443d101561349457613517565b61349c612ced565b60043d036004823e80513d602482011167ffffffffffffffff821117156134c4575050613517565b808201805167ffffffffffffffff8111156134e25750505050613517565b80602083010160043d0385018111156134ff575050505050613517565b61350e82602001850186612f60565b82955050505050505b90565b61352381612e78565b811461352e57600080fd5b50565b61353a81612e8a565b811461354557600080fd5b50565b61355181612e96565b811461355c57600080fd5b50565b61356881612ee2565b811461357357600080fd5b5056fea2646970667358221220076033b70baa2f9520c847ca288d326d9a2aaeaf28de2fea961d83f894cc4df164736f6c6343000804003368747470733a2f2f676174657761792e70696e6174612e636c6f75642f697066732f516d5434545545367a517331436e36633467747a444c6236645965735853355373775a54683468626f726d3841452f7b69647d2e6a736f6e",
  "linkReferences": {},
  "deployedLinkReferences": {}
}